:100000000C9485070C94AD070C94AD070C94AD07C8
:100010000C94AD070C94AD070C94AD070C94AD0790
:100020000C94AD070C94AD070C94AD070C94AD0780
:100030000C94DF080C94AD070C94AD070C94AD073D
:100040000C94980A0C94AD070C94AD070C94AD0772
:100050000C94CC0A0C94AD070C94AD070C94AD072E
:100060000C94AD070C94AD070C94AD070C94AD0740
:100070004552524F520041542B56455253542B5621
:1000800045526173645253542B56455253542B5668
:10009000455253542B56455253542B5645525354A4
:1000A00061736466617364667364666173646661D8
:1000B00073646661736466617364666173646661C8
:1000C000736466542B56455253542B564552535421
:1000D0002B56455253542B56455253542B5645528A
:1000E00053542B56455253542B56455253542B566A
:1000F000455253542B56455253542B564552535444
:100100002B41542B56455253542B56455253542B86
:1001100056455253542B56455253542B5645525321
:10012000542B56455253542B56455253542B564537
:100130005253542B56455253542B56455253542B1D
:1001400056455253542B56455253542B56455253F1
:10015000542B56455253542B56455253542B564507
:100160005253542B56455253542B56455253542BED
:1001700056455253542B56455253542B56455253C1
:10018000542B56455253542B56455253542B5645D7
:100190005253542B41542B56455253542B564552CF
:1001A00053542B56455253542B56455253542B56A9
:1001B000455253542B56455253542B564552535483
:1001C0002B56455253542B56455253542B56455299
:1001D00053542B56455253542B56455253542B5679
:1001E000455253542B56455253542B564552535453
:1001F0002B56455253542B56455253542B56455269
:1002000053542B56455253542B56455253542B5648
:10021000455253542B56455253542B564552535422
:100220002B56455253542B41542B56455253542B65
:1002300056455253542B56455253542B5645525300
:10024000542B56455253542B56455253542B564516
:100250005253542B56455253542B56455253542BFC
:1002600056455253542B56455253542B56455253D0
:10027000542B56455253542B56455253542B5645E6
:100280005253542B56455253542B56455253542BCC
:1002900056455253542B56455253542B56455253A0
:1002A000542B56455253542B56455253542B5645B6
:1002B0005253542B56455253542B41542B564552AE
:1002C00053542B56455253542B56455253542B5688
:1002D000455253542B56455253542B564552535462
:1002E0002B56455253542B56455253542B56455278
:1002F00053542B56455253542B56455253542B5658
:10030000455253542B56455253542B564552535431
:100310002B56455253542B56455253542B56455247
:1003200053542B56455253542B56455253542B5627
:10033000455253542B56455253542B564552535401
:100340002B56455253542B56455253542B56455217
:10035000533F0041542B56455253542B564552613E
:1003600073645253542B56455253542B5645525393
:10037000542B56455253542B56455253542B5645E5
:100380005253542B56455253542B56455253542BCB
:1003900056323334776572343672656466677364D7
:1003A000666756455253542B56455253542B564567
:1003B0005253542B56455253542B56455253542B9B
:1003C00056455253542B56455253542B41542B5699
:1003D000455253542B56455253542B564552535461
:1003E0002B56455253542B56455253542B56455277
:1003F00053542B56455253542B56455253542B5657
:10040000455253542B56455253542B564552535430
:100410002B56455253542B56455253542B56455246
:1004200053542B56455253542B56455253542B5626
:10043000455253542B56455253542B564552535400
:100440002B56455253542B56455253542B56455216
:1004500053542B56455253542B56455253542B410B
:10046000542B56455253542B56455253542B5645F4
:100470005253542B56455253542B56455253542BDA
:1004800056455253542B56455253542B56455253AE
:10049000542B56455253542B56455253542B5645C4
:1004A0005253542B56455253542B56455253542BAA
:1004B00056455253542B56455253542B564552537E
:1004C000542B56455253542B56455253542B564594
:1004D0005253542B56455253542B56455253542B7A
:1004E00056455253542B56455253542B564552534E
:1004F000542B41542B56455253542B56455253546A
:100500002B56455253542B56455253542B56455255
:1005100053542B56455253542B56455253542B5635
:10052000455253542B56455253542B56455253540F
:100530002B56455253542B56455253542B56455225
:1005400053542B56455253542B56455253542B5605
:10055000455253542B56455253542B5645525354DF
:100560002B56455253542B56455253542B564552F5
:1005700053542B56455253542B56455253542B56D5
:10058000455253542B41542B56455253542B5645E8
:100590005253542B56455253542B56455253542BB9
:1005A00056455253542B56455253542B564552538D
:1005B000542B56455253542B56455253542B5645A3
:1005C0005253542B56455253542B56455253542B89
:1005D00056455253542B56455253542B564552535D
:1005E000542B56455253542B56455253542B564573
:1005F0005253542B56455253542B56455253542B59
:1006000056455253542B56455253542B564552532C
:10061000542B56455253542B564552533F00415488
:100620002B56455253542B564552617364525354C2
:100630002B56455253542B56455253542B56455224
:1006400053542B56455253542B56455253542B5604
:100650004552536A6668676A6768666A6668676A69
:100660006867666A666867343634373536353634D7
:1006700035455253542B56455253542B56455253DD
:10068000542B56455253542B56455253542B5645D2
:100690005253542B56455253542B56455253542BB8
:1006A00056455253542B56455253542B564552538C
:1006B000542B56455253542B41542B5645525354A8
:1006C0002B56455253542B56455253542B56455294
:1006D00053542B56455253542B56455253542B5674
:1006E000455253542B56455253542B56455253544E
:1006F0002B56455253542B56455253542B56455264
:1007000053542B56455253542B56455253542B5643
:10071000455253542B56455253542B56455253541D
:100720002B56455253542B56455253542B56455233
:1007300053542B56455253542B56455253542B5613
:10074000455253542B56455253542B41542B564526
:100750005253542B56455253542B56455253542BF7
:1007600056455253542B56455253542B56455253CB
:10077000542B56455253542B56455253542B5645E1
:100780005253542B56455253542B56455253542BC7
:1007900056455253542B56455253542B564552539B
:1007A000542B56455253542B56455253542B5645B1
:1007B0005253542B56455253542B56455253542B97
:1007C00056455253542B56455253542B564552536B
:1007D000542B56455253542B56455253542B415487
:1007E0002B56455253542B56455253542B56455273
:1007F00053542B56455253542B56455253542B5653
:10080000455253542B56455253542B56455253542C
:100810002B56455253542B56455253542B56455242
:1008200053542B56455253542B56455253542B5622
:10083000455253542B56455253542B5645525354FC
:100840002B56455253542B56455253542B56455212
:1008500053542B56455253542B56455253542B56F2
:10086000455253542B56455253542B5645525354CC
:100870002B41542B56455253542B56455253542B0F
:1008800056455253542B56455253542B56455253AA
:10089000542B56455253542B56455253542B5645C0
:1008A0005253542B56455253542B56455253542BA6
:1008B00056455253542B56455253542B564552537A
:1008C000542B56455253542B56455253542B564590
:1008D0005253542B56455253542B56455253542B76
:1008E00056455253542B56455253542B564552534A
:1008F000542B56455253542B56455253542B564560
:100900005253542B564552533F0041542B56455297
:1009100053542B5645526173645253542B564552CF
:1009200053542B56455253542B56455253542B5621
:10093000455253542B56455253542B5645525354FB
:100940002B56455253542B56455253542B56455211
:1009500053542B56455253542B56455253542B56F1
:10096000455253542B56455253542B5645525354CB
:100970002B56455253542B56455253542B564552E1
:1009800053542B56455253542B56455253542B41D6
:10099000542B56455253542B56455253542B5645BF
:1009A0005253542B56455253542B56455253542BA5
:1009B00056455253542B56455253542B5645525379
:1009C000542B56455253542B56455253542B56458F
:1009D0005253542B56455253542B56455253542B75
:1009E00056455253542B56455253542B5645525349
:1009F000542B56455253542B56455253542B56455F
:100A00005253542B56455253542B56455253542B44
:100A100056455253542B56455253542B5645525318
:100A2000542B41542B56455253542B564552535434
:100A30002B56455253542B56455253542B56455220
:100A400053542B56455253542B56455253542B5600
:100A5000455253542B56455253542B5645525354DA
:100A60002B56455253542B56455253542B564552F0
:100A700053542B56455253542B56455253542B56D0
:100A8000455253542B56455253542B5645525354AA
:100A90002B56455253542B56455253542B564552C0
:100AA00053542B56455253542B56455253542B56A0
:100AB000455253542B41542B56455253542B5645B3
:100AC0005253542B56455253542B56455253542B84
:100AD00056455253542B56455253542B5645525358
:100AE000542B56455253542B56455253542B56456E
:100AF0005253542B56455253542B56455253542B54
:100B000056455253542B56455253542B5645525327
:100B1000542B56455253542B56455253542B56453D
:100B20005253542B56455253542B56455253542B23
:100B300056455253542B56455253542B56455253F7
:100B4000542B56455253542B41542B564552535413
:100B50002B56455253542B56455253542B564552FF
:100B600053542B56455253542B56455253542B56DF
:100B7000455253542B56455253542B5645525354B9
:100B80002B56455253542B56455253542B564552CF
:100B900053542B56455253542B56455253542B56AF
:100BA000455253542B56455253542B564552535489
:100BB0002B56455253542B56455253542B5645529F
:100BC00053542B56455253542B56455253542B567F
:100BD000455253542B56455253542B564552533F6E
:100BE0000041542B56455253542B56455253542BC7
:100BF00056455253542B56455253542B5645525337
:100C0000542B56455253542B56455253542B56454C
:100C10005253542B56455253542B56455253542B32
:100C200056455253542B56455253542B5645525306
:100C3000542B56455253542B56455253542B56451C
:100C40005253542B56455253542B56455253542B02
:100C500056455253542B56455253542B56455253D6
:100C6000542B56455253542B56455253542B5645EC
:100C70005253542B41542B56455253542B564552E4
:100C800053542B56455253542B56455253542B56BE
:100C9000455253542B56455253542B564552535498
:100CA0002B56455253542B56455253542B564552AE
:100CB00053542B56455253542B56455253542B568E
:100CC000455253542B56455253542B564552535468
:100CD0002B56455253542B56455253542B5645527E
:100CE00053542B56455253542B56455253542B565E
:100CF000455253542B56455253542B564552535438
:100D00002B56455253542B41542B56455253542B7A
:100D100056455253542B56455253542B5645525315
:100D2000542B56455253542B56455253542B56452B
:100D30005253542B56455253542B56455253542B11
:100D400056455253542B56455253542B56455253E5
:100D5000542B56455253542B56455253542B5645FB
:100D60005253542B56455253542B56455253542BE1
:100D700056455253542B56455253542B56455253B5
:100D8000542B56455253542B56455253542B5645CB
:100D90005253542B56455253542B41542B564552C3
:100DA00053542B56455253542B56455253542B569D
:100DB000455253542B56455253542B564552535477
:100DC0002B56455253542B56455253542B5645528D
:100DD00053542B56455253542B56455253542B566D
:100DE000455253542B56455253542B564552535447
:100DF0002B56455253542B56455253542B5645525D
:100E000053542B56455253542B56455253542B563C
:100E1000455253542B56455253542B564552535416
:100E20002B56455253542B56455253542B41542B59
:100E300056455253542B56455253542B56455253F4
:100E4000542B56455253542B56455253542B56450A
:100E50005253542B56455253542B56455253542BF0
:100E600056455253542B56455253542B56455253C4
:100E7000542B56455253542B56455253542B5645DA
:100E80005253542B56455253542B56455253542BC0
:100E900056455253542B56455253542B5645525394
:100EA000542B56455253542B56455253542B5645AA
:100EB0005253542B56455253542B56455253542B90
:100EC000564552533F005245535441525400424FED
:100ED0004F5400524F41520001804020100804023C
:100EE00001201004020108040208020101010101AD
:100EF00001010103030303030202020300322E2A4D
:100F000000312D2900302C28560B11241FBECFEFA5
:100F1000D4E0DEBFCDBF11E0A0E0B1E0EAE8F9E146
:100F200002C005900D92A034B107D9F722E0A0E4E9
:100F3000B1E001C01D92A332B207E1F71FE0CAE0A1
:100F4000DFE004C02297FE010E94B60CC830D10732
:100F5000C9F70E94CA0B0C94C30C0C94000062E009
:100F600081E00E94930961E08DE00E94930940E0D6
:100F70005BE460E070E081E791E00E94010B60E0DB
:100F800071E081E791E00E94610C68EE73E080E01F
:100F900090E00C9459091092470180915901909169
:100FA0005A01A0915B01B0915C01892B8A2B8B2B9C
:100FB00061F01092590110925A0110925B01109247
:100FC0005C0181E791E00E943B0C809146018230F8
:100FD00011F410924601E8E4F1E0119281E0E83565
:100FE000F807D9F71092580110925D01089563ED4A
:100FF0007EE08EE591E00E94BA0C892B19F465E041
:1010000071E052C06EEC7EE08EE591E00E94BA0C79
:10101000892B89F46DE071E081E791E00E94610C19
:1010200064EF71E080E090E00E94590988ED8FBD87
:1010300088E080BFFFCF66EC7EE08EE591E00E9405
:10104000BA0C892B79F465E271E081E791E00E94A6
:10105000610C64EF71E080E090E00E9459090C940B
:10106000000026C061EE7BE08EE591E00E94BA0CA4
:10107000892BF1F468EC70E080E090E00E9459095F
:101080006AE079E081E791E00E94610C6EE176E030
:1010900081E791E00E94610C63E573E081E791E0F4
:1010A0000E94610C66E770E081E791E00E94610CAC
:1010B0000C94CB0781E791E00E942C0A18161906C0
:1010C000A4F581E791E00E94530AE0915D018D3023
:1010D000B9F08A30A9F0AE2FB0E0A25ABE4F8C937F
:1010E000EF5FE0935D01EA30A8F010925D0160E7E8
:1010F00070E081E791E00E944F0C0E94CB070AC08C
:10110000EE2341F0F0E0E25AFE4F108210925D01B2
:101110000E94F7070E9429096093590170935A01B0
:1011200080935B0190935C01C5CF08950F931F934B
:101130000E9429090091420110914301209144012C
:1011400030914501601B710B820B930B693E73401C
:1011500081059105E8F0609140018DE00E94E00971
:1011600081E090E02091400130914101232B11F06A
:1011700080E090E090934101809340010E94290912
:101180006093420170934301809344019093450121
:101190001F910F910C945A08E1E7F0E08081887F5D
:1011A0008083A2E7B0E08C918C7F81608C938081FA
:1011B000877E80838081887F8360808308951F92EB
:1011C0000F920FB60F9211242F933F938F939F93FB
:1011D000AF93BF938091690190916A01A0916B01D7
:1011E000B0916C013091680126E0230F2D3730F06B
:1011F00029E8230F0396A11DB11D03C00296A11D6E
:10120000B11D209368018093690190936A01A093B6
:101210006B01B0936C0180916D0190916E01A09172
:101220006F01B09170010196A11DB11D80936D01F8
:1012300090936E01A0936F01B0937001BF91AF9135
:101240009F918F913F912F910F900FBE0F901F9004
:1012500018952FB7F8946091690170916A01809197
:101260006B0190916C012FBF08953FB7F894809166
:101270006D0190916E01A0916F01B091700129B341
:1012800009B601FE05C02F3F19F00196A11DB11D41
:101290003FBF6627782F892F9A2F620F711D811DFE
:1012A000911D43E0660F771F881F991F4A95D1F75C
:1012B0000895CF92DF92EF92FF92CF93DF936B016D
:1012C0007C010E943509EB01C114D104E104F10451
:1012D00079F00E9435096C1B7D0B683E7340A0F3CA
:1012E00081E0C81AD108E108F108C851DC4FECCF01
:1012F000DF91CF91FF90EF90DF90CF900895789499
:101300008BB383608BBBD3988AB3887F83608ABB9F
:101310008AB782608ABF0E94CC0883B1887F8660CA
:1013200083B91F9A0895CF93DF93C82FD0E0FE01B1
:10133000E852F14F3491FE01E651F14FC491CC23B4
:1013400009F43BC0D0E0FE01EC5FF04FA491B0E0A7
:10135000FE01E050F14F849190E0FE01E450F14F26
:10136000C491D0E0232F209561110EC04FB7F8949F
:101370003C9132233C93FC013081322330838881BD
:10138000822388834FBF19C0623071F45FB7F8942D
:101390004C9142234C93FC012081232B2083888194
:1013A000832B88835FBF09C09FB7F894888182230D
:1013B00088838C91832B8C939FBFDF91CF9108956D
:1013C000CF93DF93C82FD0E0FE01E852F14F249174
:1013D000FE01E651F14FC491CC2309F43AC08D309F
:1013E00019F48BB38F7304C0833021F48BB38F7CDB
:1013F0008BBB0DC08E3021F4809172008F7305C0BD
:10140000823029F4809172008F7C80937200D0E04A
:10141000FE01E050F14FA491B0E0FE01E450F14F25
:10142000C491D0E0922F909561110AC02FB7F89423
:101430008C9189238C938881892388832FBF09C04D
:101440003FB7F8948C91822B8C9388818923888371
:101450003FBFDF91CF910895FC0124813581F901CF
:10146000E05CFF4F80819181329620813181821B27
:10147000930B8F7399270895FC0184819581FC015A
:10148000EE5BFF4F208131813297408151814217BD
:10149000530731F0FC01E20FF31F808190E00895C3
:1014A0008FEF9FEF0895FC0184819581FC01EE5B35
:1014B000FF4F20813181DC01A05CBF4F4D915C91D9
:1014C0004217530761F0DC01A20FB31F8C912F5F0D
:1014D0003F4F2F7333273183208390E008958FEFA0
:1014E0009FEF0895FC0184819581FC01E05CFF4F32
:1014F000DC01AE5BBF4F8D919C91918380830895F9
:10150000FC01A285B38521E030E0038802C0220FF0
:10151000331F0A94E2F78C9190E082239323892B66
:10152000D1F30684F785E02D608381E090E0089593
:101530001F920F920FB60F9211242F933F934F9348
:101540005F936F938F939F93EF93FF9360B5209179
:101550001F0230912002C90101968F739927409193
:101560002102509122028417950741F0F901E152BE
:10157000FE4F60839093200280931F02FF91EF91B2
:101580009F918F916F915F914F913F912F910F900C
:101590000FBE0F901F9018951F920F920FB60F92CB
:1015A00011242F933F934F935F936F938F939F9348
:1015B000EF93FF93609173002091DB013091DC0188
:1015C000C90101968F7399274091DD015091DE0189
:1015D0008417950741F0F901E556FE4F608390931B
:1015E000DC018093DB01FF91EF919F918F916F91CF
:1015F0005F914F913F912F910F900FBE0F901F90D1
:1016000018950F931F93CF93DF93EC019A01AB01D1
:10161000EA85FB8501E010E0C8010C8802C0880F54
:10162000991F0A94E2F7808360E874E88EE190E005
:101630000E94950C2150310941095109CA01B90193
:1016400022E030E040E050E00E94950CEE81FF8106
:10165000832F99278083E885F9852083EC85FD8594
:101660002081C801088802C0880F991F0A94E2F7F8
:10167000282B2083EC85FD852081C801098802C0C4
:10168000880F991F0A94E2F7282B2083EC85FD85AB
:1016900080810A8802C0000F111F0A94E2F7802B94
:1016A0008083DF91CF911F910F910895109289014E
:1016B0001092880183E391E09093870180938601E3
:1016C0002FED31E030938B0120938A0122E430E04A
:1016D00030938D0120938C0121E430E030938F0111
:1016E00020938E0126E430E0309391012093900105
:1016F00025E430E0309393012093920120E430E020
:10170000309395012093940164E06093960153E037
:101710005093970147E04093980135E03093990149
:1017200021E020939A01109274011092730190931A
:101730007201809371018BE991E09093760180931F
:10174000750185E790E0909378018093770184E7B5
:1017500090E090937A018093790189E790E09093EB
:101760007C0180937B0188E790E090937E018093D9
:101770007D0183E790E09093800180937F016093E7
:10178000810150938201409383013093840120931F
:10179000850108950E947F090E94AF070E94960864
:1017A000FDCFCF92DF92EF92FF920F931F93CF93D3
:1017B000DF936C017A01EB01E60EF71E00E010E00A
:1017C000CE15DF0561F06991D601ED91FC91019094
:1017D000F081E02DC6010995080F191FF1CFC8014E
:1017E000DF91CF911F910F91FF90EF90DF90CF90FD
:1017F00008956115710581F0DB010D900020E9F776
:10180000AD0141505109461B570BDC01ED91FC9194
:101810000280F381E02D099480E090E00895EF923A
:10182000FF920F931F93CF93DF938C01FB01C0E0D6
:10183000D0E064917F018FEFE81AF80A662361F027
:10184000D801ED91FC910190F081E02DC80109953E
:10185000C80FD91FF701EDCFCE01DF91CF911F91B6
:101860000F91FF90EF900895DC01ED91FC910190B4
:10187000F081E02D09940F931F93CF93DF93EC0138
:101880006DE00E94340C8C016AE0CE010E94340CA1
:10189000800F911FDF91CF911F910F9108950F93AA
:1018A0001F93CF93DF93EC010E940F0C8C01CE01AC
:1018B0000E943B0C800F911FDF91CF911F910F91E0
:1018C00008950F931F93CF93DF93EC010E94F90BC0
:1018D0008C01CE010E943B0C800F911FDF91CF91B4
:1018E0001F910F910895A1E21A2EAA1BBB1BFD01A7
:1018F0000DC0AA1FBB1FEE1FFF1FA217B307E407EF
:10190000F50720F0A21BB30BE40BF50B661F771F46
:10191000881F991F1A9469F7609570958095909526
:101920009B01AC01BD01CF010895052E97FB1EF46C
:1019300000940E94AC0C57FD07D00E94730C07FC6A
:1019400003D04EF40C94AC0C5095409530952195F5
:101950003F4F4F4F5F4F08959095809570956195DB
:101960007F4F8F4F9F4F0895EE0FFF1F0590F4910B
:10197000E02D0994FB01DC018D9105908019011087
:0A198000D9F3990B0895F894FFCFF6
:10198A004655434B00524F736466415200454E54CC
:10199A004552494E4720424F4F544C736461664F3B
:1019AA0041444552005245424F4F54494E47000068
:1019BA00000000800AD10B2C0A530A3C0A720A0062
:00000001FF
