:100000000C945D000C9485000C9485000C94850084
:100010000C9485000C9485000C9485000C9485004C
:100020000C9485000C9485000C9485000C9485003C
:100030000C9492010C9485000C9485000C9485001E
:100040000C944B030C9485000C9485000C94850053
:100050000C947F030C9485000C9485000C9485000F
:100060000C9485000C9485000C9485000C948500FC
:100070004552524F52005245535441525400424F40
:100080004F5400524F41520001804020100804029A
:10009000012010040201080402080201010101010B
:1000A00001010103030303030202020300322E2AAB
:1000B00000312D2900302C28090411241FBECFEF58
:1000C000D4E0DEBFCDBF11E0A0E0B1E0E0EFFAE0A8
:1000D00002C005900D92A034B107D9F722E0A0E448
:1000E000B1E001C01D92A332B207E1F710E0CAEB04
:1000F000D0E004C02297FE010E946905C83BD107E9
:10010000C9F70E947D040C9476050C94000062E00F
:1001100081E00E94460261E08DE00E94460240E0DC
:100120005BE460E070E086E891E00E94B40360E088
:1001300071E086E891E00E94140568EE73E080E0CB
:1001400090E00C940C02109247018091590190911B
:100150005A01A0915B01B0915C01892B8A2B8B2BFA
:1001600061F01092590110925A0110925B011092A5
:100170005C0186E891E00E94EE04809146018230A5
:1001800011F410924601E8E4F1E0119281E0E835C3
:10019000F807D9F71092580110925D01089563E8AD
:1001A00070E08EE591E00E946D05892B39F465E0E1
:1001B00071E086E891E00E9414052DC06EE770E0C2
:1001C0008EE591E00E946D05892B79F46DE071E078
:1001D00086E891E00E94140564EF71E080E090E011
:1001E0000E940C020C94001D16C066E770E08EE5BC
:1001F00091E00E946D05892B71F465E271E086E85B
:1002000091E00E94140564EF71E080E090E00E94AC
:100210000C020C9400000C94A30086E891E00E946C
:10022000DF0218161906A4F586E891E00E9406037D
:10023000E0915D018D30B9F08A30A9F0AE2FB0E0C9
:10024000A25ABE4F8C93EF5FE0935D01EA30A8F0B5
:1002500010925D0160E770E086E891E00E9402057F
:100260000E94A3000AC0EE2341F0F0E0E25AFE4FE4
:10027000108210925D010E94CF000E94DC01609309
:10028000590170935A0180935B0190935C01C5CF33
:1002900008950F931F930E94DC0100914201109179
:1002A00043012091440130914501601B710B820B89
:1002B000930B693C710581059105E8F0609140015F
:1002C0008DE00E94930281E090E020914001309106
:1002D0004101232B11F080E090E090934101809345
:1002E00040010E94DC0160934201709343018093BE
:1002F0004401909345011F910F910C940D01E1E78A
:10030000F0E08081887F8083A2E7B0E08C918C7FD1
:1003100081608C938081877E80838081887F8360E9
:10032000808308951F920F920FB60F9211242F937E
:100330003F938F939F93AF93BF9380916901909167
:100340006A01A0916B01B0916C013091680126E0C7
:10035000230F2D3730F029E8230F0396A11DB11D7F
:1003600003C00296A11DB11D20936801809369010D
:1003700090936A01A0936B01B0936C0180916D0121
:1003800090916E01A0916F01B09170010196A11D35
:10039000B11D80936D0190936E01A0936F01B09396
:1003A0007001BF91AF919F918F913F912F910F90CD
:1003B0000FBE0F901F9018952FB7F89460916901A8
:1003C00070916A0180916B0190916C012FBF08952B
:1003D0003FB7F89480916D0190916E01A0916F01EB
:1003E000B091700129B309B601FE05C02F3F19F085
:1003F0000196A11DB11D3FBF6627782F892F9A2F27
:10040000620F711D811D911D43E0660F771F881FCC
:10041000991F4A95D1F70895CF92DF92EF92FF92FC
:10042000CF93DF936B017C010E94E801EB01C114C3
:10043000D104E104F10479F00E94E8016C1B7D0B0A
:10044000683E7340A0F381E0C81AD108E108F108C2
:10045000C851DC4FECCFDF91CF91FF90EF90DF9050
:10046000CF90089578948BB383608BBBD3988AB375
:10047000887F83608ABB8AB782608ABF0E947F01BF
:1004800083B1887F866083B91F9A0895CF93DF93E5
:10049000C82FD0E0FE01E857FF4F3491FE01E65629
:1004A000FF4FC491CC2309F43BC0D0E0FE01EC54D3
:1004B000FF4FA491B0E0FE01E055FF4F849190E022
:1004C000FE01E455FF4FC491D0E0232F2095611128
:1004D0000EC04FB7F8943C9132233C93FC0130811D
:1004E000322330838881822388834FBF19C06230D2
:1004F00071F45FB7F8944C9142234C93FC01208136
:10050000232B20838881832B88835FBF09C09FB7FB
:10051000F8948881822388838C91832B8C939FBF4E
:10052000DF91CF910895CF93DF93C82FD0E0FE01E4
:10053000E857FF4F2491FE01E656FF4FC491CC23AC
:1005400009F43AC08D3019F48BB38F7304C0833033
:1005500021F48BB38F7C8BBB0DC08E3021F4809146
:1005600072008F7305C0823029F4809172008F7CF5
:1005700080937200D0E0FE01E055FF4FA491B0E0FF
:10058000FE01E455FF4FC491D0E0922F9095611188
:100590000AC02FB7F8948C9189238C938881892382
:1005A00088832FBF09C03FB7F8948C91822B8C931E
:1005B0008881892388833FBFDF91CF910895FC0113
:1005C00024813581F901E05CFF4F80819181329671
:1005D00020813181821B930B8F7399270895FC0131
:1005E00084819581FC01EE5BFF4F20813181329740
:1005F000408151814217530731F0FC01E20FF31F94
:10060000808190E008958FEF9FEF0895FC01848131
:100610009581FC01EE5BFF4F20813181DC01A05C04
:10062000BF4F4D915C914217530761F0DC01A20F5F
:10063000B31F8C912F5F3F4F2F733327318320835C
:1006400090E008958FEF9FEF0895FC0184819581DC
:10065000FC01E05CFF4FDC01AE5BBF4F8D919C91D4
:10066000918380830895FC01A285B38521E030E069
:10067000038802C0220F331F0A94E2F78C9190E0A6
:1006800082239323892BD1F30684F785E02D6083A1
:1006900081E090E008951F920F920FB60F921124FF
:1006A0002F933F934F935F936F938F939F93EF930A
:1006B000FF9360B520911F0230912002C90101967D
:1006C0008F73992740912102509122028417950738
:1006D00041F0F901E152FE4F608390932002809334
:1006E0001F02FF91EF919F918F916F915F914F91B9
:1006F0003F912F910F900FBE0F901F9018951F9252
:100700000F920FB60F9211242F933F934F935F9345
:100710006F938F939F93EF93FF936091730020915A
:10072000DB013091DC01C90101968F73992740915B
:10073000DD015091DE018417950741F0F901E5567E
:10074000FE4F60839093DC018093DB01FF91EF917A
:100750009F918F916F915F914F913F912F910F904A
:100760000FBE0F901F9018950F931F93CF93DF9399
:10077000EC019A01AB01EA85FB8501E010E0C801BC
:100780000C8802C0880F991F0A94E2F7808360E802
:1007900074E88EE190E00E9448052150310941093A
:1007A0005109CA01B90122E030E040E050E00E9466
:1007B0004805EE81FF81832F99278083E885F9859D
:1007C0002083EC85FD852081C801088802C0880F40
:1007D000991F0A94E2F7282B2083EC85FD85208160
:1007E000C801098802C0880F991F0A94E2F7282BD4
:1007F0002083EC85FD8580810A8802C0000F111FCF
:100800000A94E2F7802B8083DF91CF911F910F91A3
:100810000895109289011092880183E391E09093EA
:100820008701809386012FED31E030938B01209377
:100830008A0122E430E030938D0120938C0121E481
:1008400030E030938F0120938E0126E430E0309326
:1008500091012093900125E430E03093930120939F
:10086000920120E430E0309395012093940164E0FC
:100870006093960153E05093970147E040939801AD
:1008800035E03093990121E020939A011092740190
:100890001092730190937201809371018BE991E042
:1008A000909376018093750185E790E090937801AD
:1008B0008093770184E790E090937A0180937901A7
:1008C00089E790E090937C0180937B0188E790E03A
:1008D00090937E0180937D0183E790E09093800167
:1008E00080937F0160938101509382014093830143
:1008F000309384012093850108950E9432020E9462
:1009000087000E944901FDCFCF92DF92EF92FF92C4
:100910000F931F93CF93DF936C017A01EB01E60EE7
:10092000F71E00E010E0CE15DF0561F06991D601F9
:10093000ED91FC910190F081E02DC6010995080F21
:10094000191FF1CFC801DF91CF911F910F91FF9037
:10095000EF90DF90CF9008956115710581F0DB0174
:100960000D900020E9F7AD0141505109461B570B8E
:10097000DC01ED91FC910280F381E02D099480E08F
:1009800090E00895EF92FF920F931F93CF93DF9320
:100990008C01FB01C0E0D0E064917F018FEFE81A89
:1009A000F80A662361F0D801ED91FC910190F08185
:1009B000E02DC8010995C80FD91FF701EDCFCE0171
:1009C000DF91CF911F910F91FF90EF900895DC017F
:1009D000ED91FC910190F081E02D09940F931F930C
:1009E000CF93DF93EC016DE00E94E7048C016AE095
:1009F000CE010E94E704800F911FDF91CF911F91DC
:100A00000F9108950F931F93CF93DF93EC010E94F2
:100A1000C2048C01CE010E94EE04800F911FDF9171
:100A2000CF911F910F9108950F931F93CF93DF9351
:100A3000EC010E94AC048C01CE010E94EE04800FF8
:100A4000911FDF91CF911F910F910895A1E21A2E6E
:100A5000AA1BBB1BFD010DC0AA1FBB1FEE1FFF1F62
:100A6000A217B307E407F50720F0A21BB30BE40BB2
:100A7000F50B661F771F881F991F1A9469F76095F9
:100A80007095809590959B01AC01BD01CF010895B3
:100A9000052E97FB1EF400940E945F0557FD07D0BA
:100AA0000E94260507FC03D04EF40C945F05509578
:100AB0004095309521953F4F4F4F5F4F089590954A
:100AC0008095709561957F4F8F4F9F4F0895EE0FE2
:100AD000FF1F0590F491E02D0994FB01DC018D913D
:100AE000059080190110D9F3990B0895F894FFCF60
:100AF0004655434B00524F736466415200454E5475
:100B00004552494E4720424F4F544C736461664FE3
:100B100041444552005245424F4F54494E47000010
:100B200000000033038404DF020603EF0225030004
:00000001FF
