:1000000010C100003CC100003AC1000038C100002E
:1000100036C1000034C1000032C1000030C1000010
:100020002EC100002CC100002AC1000028C1000020
:1000300026C1000024C1000022C1000020C1000030
:100040001EC100001CC100001AC1000018C1000040
:1000500016C1000014C1000012C10000ECC1000074
:100060000EC100000CC100000AC1000008C1000060
:1000700006C1000004C1000002C1000000C1000070
:10008000FEC00000FCC00000FAC00000F8C0000084
:1000900002C5000036C50000F2C00000F0C000003C
:1000A000EEC00000ECC00000EAC00000E8C00000A4
:1000B000E6C00000E4C00000E2C00000E0C00000B4
:1000C000DEC00000DCC00000DAC00000D8C00000C4
:1000D000D6C00000D4C00000D2C00000D0C00000D4
:1000E000CEC0000033033603250329032F036D031D
:1000F0003A033E03440348034C03520356035A0396
:100100006D03600364036803524553544152540025
:10011000424F4F5400524F41520000000A0B020957
:100120000C0D0E0807030401000000000000000091
:1001300000000000000000000000000000000000BF
:10014000000000000000121110000000000000007C
:10015000000000000000000000000000000000009F
:1001600001021020200808102040102040800201C9
:1001700002010804020101020408102040808040AE
:1001800020100804020180040201804020100804AD
:10019000020108040201010204081020408001024B
:1001A0000408102040800505050507050808080813
:1001B000020202020A0A08080404040401010101FF
:1001C00001010101030303030303030304070707FA
:1001D0000C0C0C0C0C0C0C0C02020202060606069F
:1001E000060606060B0B0B0B0B0B0B0B000022007D
:1001F000250028002B002E003100340002010000F1
:10020000050108010B0100002100240027002A003D
:100210002D003000330001010000040107010A0134
:10022000B30511241FBECFEFD1E2DEBFCDBF00E08A
:100230000CBF12E0A0E0B2E0E4E1FDE000E00BBFA3
:1002400002C007900D92A833B107D9F723E0A8E3C5
:10025000B2E001C01D92A630B207E1F712E0C2E29F
:10026000D2E000E005C022970109FE010BBF43D593
:10027000C032D10780E00807B1F7B9D449C5C0CE74
:1002800062E081E02BD261E08DE028D226E040E000
:100290005BE460E070E089E692E09DD360E072E0AC
:1002A00089E692E0EFD468EE73E080E090E03CC134
:1002B00010923F028091510290915202A0915302FC
:1002C000B0915402892B8A2B8B2B59F0109251023A
:1002D00010925202109253021092540289E692E058
:1002E000CED480913E02823011F410923E02E0E4BE
:1002F000F2E0119282E0E035F807D9F7109250024F
:1003000010925502089565E171E086E592E0F7D418
:10031000892B31F465E072E089E692E0B3D422C023
:1003200060E171E086E592E0EAD4892B41F464EF64
:1003300071E080E090E0F8D00D9400FC13C068E01C
:1003400071E086E592E0DBD4892B61F46DE072E028
:1003500089E692E097D464EF71E080E090E0E4D029
:100360000C940000A5CF89E692E026D21816190653
:100370007CF589E692E039D2E09155028D30A9F002
:100380008A3099F0AE2FB0E0AA5ABD4F8C93EF5F40
:10039000E0935502EA3090F01092550266E572E063
:1003A00089E692E06FD484DF09C0EE2339F0F0E0F3
:1003B000EA5AFD4F108210925502A5DF86D0609355
:1003C0005102709352028093530290935402CBCF08
:1003D00008950F931F9379D000913A0210913B0238
:1003E00020913C0230913D02601B710B820B930BFC
:1003F000693C710581059105D8F0609138028DE066
:10040000A6D181E090E02091380230913902232B6F
:1004100011F080E090E0909339028093380255D03B
:1004200060933A0270933B0280933C0290933D02AA
:100430001F910F9198CF1F920F920FB60F92112418
:100440002F933F938F939F93AF93BF9380916102BC
:1004500090916202A0916302B091640230916002B7
:1004600023E0230F2D3720F40196A11DB11D05C0F7
:1004700026E8230F0296A11DB11D209360028093F0
:10048000610290936202A0936302B0936402809130
:10049000650290916602A0916702B0916802019690
:1004A000A11DB11D8093650290936602A09367021F
:1004B000B0936802BF91AF919F918F913F912F911F
:1004C0000F900FBE0F901F9018952FB7F894609162
:1004D00061027091620280916302909164022FBF69
:1004E00008953FB7F8948091650290916602A091BB
:1004F0006702B091680226B5A89B05C02F3F19F08E
:100500000196A11DB11D3FBF6627782F892F9A2F15
:10051000620F711D811D911D42E0660F771F881FBC
:10052000991F4A95D1F70895CF92DF92EF92FF92EB
:10053000CF93DF936B017C01D4DFEB01C114D104B5
:10054000E104F10479F0AED3CCDF6C1B7D0B683E87
:100550007340A0F381E0C81AD108E108F108C8513E
:10056000DC4FECCFDF91CF91FF90EF90DF90CF90F9
:100570000895789484B5826084BD84B5816084BD1B
:1005800085B5826085BD85B5816085BDEEE6F0E00C
:10059000808181608083E1E8F0E010828081826068
:1005A0008083808181608083E0E8F0E080818160E9
:1005B0008083E1EBF0E0808184608083E0EBF0E019
:1005C000808181608083E1E9F0E0808182608083C6
:1005D000808181608083E0E9F0E0808181608083B8
:1005E000E1EAF0E0808182608083808181608083A5
:1005F000E0EAF0E0808181608083E1E2F1E08081E7
:1006000082608083808181608083E0E2F1E080818C
:1006100081608083EAE7F0E080818460808380816C
:100620008260808380818160808380818068808314
:100630001092C100089590E0FC013197E231F1057C
:1006400008F04BC0EE58FF4F50C3809180008F7769
:1006500003C0809180008F7D8093800008958091F9
:100660008000877FF9CF84B58F7702C084B58F7DF6
:1006700084BD08958091B0008F7703C08091B00051
:100680008F7D8093B0000895809190008F7707C090
:10069000809190008F7D03C080919000877F809330
:1006A000900008958091A0008F7707C08091A000EE
:1006B0008F7D03C08091A000877F8093A000089564
:1006C000809120018F7707C0809120018F7D03C02A
:1006D00080912001877F809320010895CF93DF933D
:1006E00090E0FC01E05AFE4F2491FC01EA55FE4FD8
:1006F0008491882349F190E0880F991FFC01EA5FFB
:10070000FD4FA591B49184519E4FFC01C591D491A8
:100710009FB7611108C0F8948C91209582238C9327
:10072000888182230AC0623051F4F8948C91322F70
:10073000309583238C938881822B888304C0F8941E
:100740008C91822B8C939FBFDF91CF9108950F9353
:100750001F93CF93DF931F92CDB7DEB7282F30E0E2
:10076000F901E65EFE4F8491F901E05AFE4F1491C3
:10077000F901EA55FE4F04910023C1F0882319F0D6
:10078000698359DF6981E02FF0E0EE0FFF1FE4512C
:10079000FE4FA591B4919FB7F8948C91611103C05D
:1007A0001095812301C0812B8C939FBF0F90DF9107
:1007B000CF911F910F910895FC01818D228D90E0C2
:1007C000805C9F4F821B91098F7399270895FC01CC
:1007D000918D828D981731F0828DE80FF11D858DF6
:1007E00090E008958FEF9FEF0895FC01918D828D29
:1007F000981761F0828DDF01A80FB11D5D968C9175
:10080000928D9F5F9F73928F90E008958FEF9FEF7F
:10081000089580E090E0892B41F080E090E0892B02
:1008200021F00E940000811124C08AEA95E0892B02
:1008300039F080E090E0892B19F08CD181111CC037
:1008400080E090E0892B41F080E090E0892B21F05E
:100850000E940000811113C080E090E0892BA1F07C
:1008600080E090E0892B81F00E94000081110AC095
:1008700008950E940000D9CF0E940000E1CF0E949D
:100880000000EACF0C9400000895FC01848DDF0184
:10089000A80FB11DA35ABF4F2C91848D90E00196F3
:1008A0008F739927848FA689B7892C93A089B189E2
:1008B0008C9180648C93938D848D981306C00288EC
:1008C000F389E02D80818F7D80830895CF93DF931E
:1008D000EC01888D8823C1F0EA89FB89808185FD40
:1008E00005C0A889B9898C9186FD0EC00FB607FC9A
:1008F000F5CF808185FFF2CFA889B9898C9185FFDA
:10090000EDCFCE01C2DFE8CFDF91CF910895CF9236
:10091000DF92FF920F931F93CF93DF931F92CDB778
:10092000DEB76C0181E0D60158968C9358975B96A0
:100930009C915B975C968C915C97981307C050963E
:10094000ED91FC915197808185FD2DC0F601038DBD
:1009500010E00F5F1F4F0F731127F02EF601848DEB
:10096000F81210C00FB607FCF9CFD6015096ED91E2
:10097000FC915197808185FFF1CFC601698385DFA6
:100980006981ECCF838DE80FF11DE35AFF4F60833F
:10099000D6015B960C935B975296ED91FC91539721
:1009A000808180620CC0D6015696ED91FC915797DC
:1009B00060835096ED91FC91519780818064808393
:1009C00081E090E00F90DF91CF911F910F91FF9008
:1009D000DF90CF900895BF92CF92DF92EF92FF9277
:1009E000CF93DF93EC016A017B01B22EE889F9898C
:1009F00082E08083411581EE58076105710599F009
:100A000060E079E08DE390E0A70196014CD12150A0
:100A10003109410951095695479537952795211573
:100A200080E1380790F0E889F989108260E874E87D
:100A30008EE190E0A701960136D12150310941099C
:100A400051095695479537952795EC85FD85308357
:100A5000EE85FF852083188EEC89FD89B082EA89B6
:100A6000FB89808180618083EA89FB89808188603D
:100A70008083EA89FB89808180688083EA89FB8999
:100A800080818F7D8083DF91CF91FF90EF90DF9009
:100A9000CF90BF9008951F920F920FB60F9211241E
:100AA0000BB60F922F938F939F93EF93FF93E09149
:100AB0007902F0917A028081E0917F02F0918002C8
:100AC00082FD12C09081809182028F5F8F7320918E
:100AD0008302821751F0E0918202F0E0E759FD4F66
:100AE000958F8093820201C08081FF91EF919F9149
:100AF0008F912F910F900BBE0F900FBE0F901F90F4
:100B000018951F920F920FB60F9211240BB60F92E9
:100B10002F933F934F935F936F937F938F939F9305
:100B2000AF93BF93EF93FF9389E692E0AEDEFF9120
:100B3000EF91BF91AF919F918F917F916F915F9155
:100B40004F913F912F910F900BBE0F900FBE0F90C2
:100B50001F90189589E692E02FDE21E0892B09F499
:100B600020E0822F089510926C0210926B0288EEA2
:100B700093E0A0E0B0E080936D0290936E02A093AA
:100B80006F02B09370028BE192E090936A028093BF
:100B900069028DEC90E090937602809375028CEC64
:100BA00090E0909378028093770288EC90E09093A5
:100BB0007A028093790289EC90E090937C02809392
:100BC0007B028AEC90E090937E0280937D028EEC13
:100BD00090E09093800280937F02109282021092A4
:100BE0008302109284021092850208950895C1DC58
:100BF000FDDF46DBC9E0D4E0ECDB2097E9F309DE5A
:100C0000FBCFCF92DF92EF92FF920F931F93CF9380
:100C1000DF936C017A01EB01E60EF71E00E010E0B5
:100C2000CE15DF0561F06991D601ED91FC9101903F
:100C3000F081E02DC6011995080F191FF1CFC801E9
:100C4000DF91CF911F910F91FF90EF90DF90CF90A8
:100C500008956115710581F0DB010D900020E9F721
:100C6000AD0141505109461B570BDC01ED91FC9140
:100C70000280F381E02D199480E090E0089567E20E
:100C800072E0E7CF0F931F93CF93DF93EC01E1DF87
:100C90008C01CE01F4DF800F911FDF91CF911F9166
:100CA0000F9108950895A1E21A2EAA1BBB1BFD0106
:100CB0000DC0AA1FBB1FEE1FFF1FA217B307E4073B
:100CC000F50720F0A21BB30BE40BF50B661F771F93
:100CD000881F991F1A9469F7609570958095909573
:100CE0009B01AC01BD01CF010895EE0FFF1F0590E0
:100CF000F491E02D19940790F691E02D1994FB01E1
:100D0000DC018D91059080190110D9F3990B08959C
:040D1000F894FFCF85
:100D14004655434B00524F7364664152005245425C
:100D24004F4F54494E47000000000087040106DC81
:100D340003F503E70366040D0A006E616E00696E35
:080D440066006F7666002E00C8
:00000001FF
